:020000040800F2
:10000000C01F00208102000839150008551400089F
:1000100035150008B10300086D1900080000000044
:10002000000000000000000000000000C101000806
:10003000B5030008000000001D0200086915000853
:100040009B0200089B0200089B0200089B0200081C
:100050009B0200089B0200089B0200089B0200080C
:100060009B0200089B0200089B0200089B020008FC
:100070009B0200089B0200089B0200089B020008EC
:100080009B0200089B0200089B0200089B020008DC
:100090009B0200089B0200089B0200089B020008CC
:1000A0009B0200089B0200089B0200089B020008BC
:1000B0009B0200089B0200089B0200089B020008AC
:1000C0009B0200089B0200089B0200089B0200089C
:1000D0009B0200089B0200089B0200089B0200088C
:1000E0009B0200089B0200089B0200089B0200087C
:1000F0009B0200089B0200089B0200089B0200086C
:100100009B0200089B0200089B0200089B0200085B
:100110009B0200089B020008511600089B02000881
:100120009B0200089B0200089B0200089B0200083B
:100130009B0200089B0200089B0200089B0200082B
:100140009B0200089B0200089B0200089B0200081B
:100150009B0200089B0200089B0200089B0200080B
:100160009B0200089B0200089B0200089B020008FB
:100170009B0200089B0200089B0200080000000090
:100180009B0200089B0200089B0200089B020008DB
:100190009B0200089B0200089B0200089B020008CB
:1001A0009B0200089B0200089B020008DFF80CD0AD
:1001B00000F0ECF8004800471D1A0008C01F00209E
:1001C0002C4B19680868B0E8F04F80F30988BFF33A
:1001D0006F8F4FF0000080F311887047000000001F
:1001E00008480068006880F308884FF0000080F33A
:1001F000148862B661B6BFF34F8FBFF36F8F00DF15
:1002000000BF00BF08ED00E0DFF80C00016841F41A
:1002100070010160704700BF88ED00E0EFF30980D6
:10022000BFF36F8F134B1A681EF0100F08BF20ED3D
:10023000108A20E9F04F106009B44FF0500080F3AD
:100240001188BFF34F8FBFF36F8F02F0B3FD4FF0F4
:10025000000080F3118809BC19680868B0E8F04F05
:100260001EF0100F08BFB0EC108A80F30988BFF3AE
:100270006F8F704714000020EFF305807047000077
:100280000648804706480047FEE7FEE7FEE7FEE730
:10029000FEE7FEE7FEE7FEE7FEE7FEE73D160008A5
:1002A000AD0100082DE9F05F0546002092469B460F
:1002B00088460646814640241BE02846414647467C
:1002C000224600F053F853465A46C01A914110D3C3
:1002D00011461846224600F03AF82D1A67EB01083D
:1002E0004F4622460120002100F031F817EB0009AB
:1002F0004E41201EA4F10104DFDC484631462A4667
:100300004346BDE8F09F40EA01039B0703D009E0A4
:1003100008C9121F08C0042AFAD203E011F8013BF1
:1003200000F8013B521EF9D27047D2B201E000F84A
:10033000012B491EFBD270470022F6E710B5134689
:100340000A4604461946FFF7F0FF204610BD202A52
:1003500004DB203A00FA02F1002070479140C2F11C
:10036000200320FA03F3194390407047202A04DB4E
:10037000203A21FA02F00021704721FA02F3D0401E
:10038000C2F120029140084319467047064C074DC0
:1003900006E0E06840F0010394E807009847103455
:1003A000AC42F6D3FFF706FF8C390008AC390008E1
:1003B00000BFFEE7704772B600BFFEE770B50546A6
:1003C00000F01EF906466C1E601C10B1044800784F
:1003D000044400BF00F014F9801BA042FAD370BDA2
:1003E0000C000020F8B502460B4600250024002032
:1003F0000021E0E0012606FA01F51E6806EA050480
:10040000AC4274D11E7906F00306012E04D01E7989
:1004100006F00306022E13D190684F000326BE405B
:10042000B0434F00DE68BE40304390605068012604
:100430008E40B0431E79C6F300168E4030435060A4
:100440001E7906F00306032E09D0D0684F0003265C
:10045000BE40B0434F009E68BE403043D0601E791E
:1004600006F00306022E13D1CF0802F1200656F83B
:1004700027004E07F70E0F26BE40B0434F07FF0E72
:100480001E69BE403043CF0802F1200646F827001F
:1004900010684F000326BE40B0431E7906F00306E5
:1004A0004F00BE40304310605E6806F44036002EB8
:1004B0001DD000BF00260096414E366846F48046A7
:1004C0003F4F3E603E46366806F48046009600BFC9
:1004D00000BF3C4E8F0856F827008E07370F0F26B7
:1004E000BE40B043384EB24202D100262EE061E059
:1004F000364EB24201D1012628E0354EB24201D13A
:10050000022623E0334EB24201D103261EE0324ED2
:10051000B24201D1042619E0304EB24201D1052683
:1005200014E02F4EB24201D106260FE02D4EB2420A
:1005300001D107260AE02C4EB24201D1082605E07F
:100540002A4EB24201D1092600E00A268F073F0F4A
:10055000BE4030431B4E8F0846F82700244E3068BB
:10056000A0435E6806F4801606B12043204E30603A
:10057000361D3068A0435E6806F4001606B12043BD
:100580001B4E361D30601A4E361F3068A0435E6821
:1005900006F4003606B12043154E361F3060361F74
:1005A0003068A0435E6806F4803606B12043104EE2
:1005B000083E3060491C1029FFF41CAFF8BD000054
:1005C0004438024008380140000002400004024064
:1005D00000080240000C02400010024000140240DB
:1005E00000180240001C024000200240002402408B
:1005F000083C01400AB1816101E00B04836170474E
:1006000001480068704700000400002003480068AB
:100610000349097808440149086070470400002034
:100620000C00002010B50D48006840F400700B4924
:1006300008600846006840F480600860084600686A
:1006400040F480700860032000F0ACF80F2000F048
:1006500007F800F02BF8002010BD0000003C02401D
:1006600070B504460E4800784FF47A71B1FBF0F093
:100670000C490968B1FBF0F5284600F07BFC08B195
:10068000012070BD102C07D200222146501E00F020
:100690004BF80548046001E00120F2E70020F0E794
:1006A0000C000020000000200800002008B500BF5A
:1006B000002000901148006840F480400F49086015
:1006C0000846006800F48040009000BF00BF00BFF3
:1006D00000200090081F006840F08050091F08604B
:1006E0000846006800F08050009000BF00BF002264
:1006F0000F21901E00F018F808BD00004438024099
:100700000146084600280DDB00BF00BF00F01F03B4
:1007100001229A4043099B0003F1E023C3F8002122
:1007200000BF00BF00BF70472DE9F05F80460D4657
:100730001646002701F024F9074639462A46334673
:1007400001F00700C0F1070ABAF1040F02D94FF017
:10075000040A01E0C0F1070AD14600F1040ABAF127
:10076000070F02D24FF0000A01E0A0F1030AD446BD
:100770004FF0010A0AFA09FAAAF1010A0AEA020A82
:100780000AFA0CFA4FF0010B0BFA0CFBABF1010B60
:100790000BEA030B4AEA0B042146404601F0F8F845
:1007A000BDE8F09F00BF00F00702064B19684FF646
:1007B000FF031940044B0B4343EA0221014B19602C
:1007C00000BF70470CED00E00000FA0538B50024CA
:1007D00000BF002000901D48006840F080501B4979
:1007E00008600846006800F08050009000BF00BF1D
:1007F000012017490864FFF703FF044607E0FFF7ED
:10080000FFFE001BB0F57A7F01D9032038BD1148E7
:10081000406800F48030B0F5803FF0D101200C49F1
:100820004864FFF7EDFE044607E0FFF7E9FE001B12
:10083000B0F57A7F01D90320E8E70648406800F464
:100840000030B0F5003FF0D10020DFE74038024033
:1008500000000E420070004070B504460D460CB911
:10086000012070BD5848006800F00F00A84209D26E
:1008700055490D700846006800F00F00A84201D0ED
:100880000120EEE7207800F0020002281DD1207838
:1008900000F00400042805D14C48006840F4E05002
:1008A0004A490860207800F00800082805D1474828
:1008B000006840F46040454908604448006820F002
:1008C000F000A168084341490860207800F0010069
:1008D000A8B36068012807D13C4808380068C0F315
:1008E0004040B8B90120BCE76068022802D06068C7
:1008F000032807D1354808380068C0F3406048B97C
:100900000120AEE7314808380068C0F3400008B95C
:100910000120A6E72D48006820F003006168084325
:100920002A490860FFF76CFE064609E0FFF768FEFB
:10093000801B41F28831884202D9032091E707E009
:100940002248006800F00C006168B0EB810FEDD127
:100950001D48006800F00F00A84209D91A490D701F
:100960000846006800F00F00A84201D0012078E797
:10097000207800F00400042807D11448006820F40F
:10098000E050E168084311490860207800F0080051
:10099000082808D10D48006820F46040216940EA29
:1009A000C1000A49086000F03FF808490968C1F32E
:1009B0000311074A515CC8400649086006480068B0
:1009C000FFF74EFE00204CE7003C02400838024092
:1009D0004439000800000020080000200148006899
:1009E000704700000000002000B5FFF7F7FF044942
:1009F0000968C1F38221034A515CC84000BD000070
:100A0000083802405439000800B5FFF7E7FF0449F1
:100A10000968C1F34231034A515CC84000BD00007F
:100A200008380240543900082DE9F0470024002519
:100A30000026A1462548006800F00C0020B10428DB
:100A400005D008283AD105E0DFF8849039E0DFF8D6
:100A5000849036E01D48001F006800F03F041B48EA
:100A6000001F006800F4800078B11A481749091F78
:100A70000968C1F38811A0FB0170014622460023DA
:100A80003846FFF70FFC05460EE011480F49091FD5
:100A90000968C1F38811A0FB0170014622460023BA
:100AA0003846FFF7FFFB05460848001F0068C0F303
:100AB0000140401C4600B5FBF6F902E0DFF810905B
:100AC00000BF00BF4846BDE8F0870000083802407C
:100AD0000024F40040787D01F8B504460CB90120EB
:100AE000F8BD207800F00100002874D0F9480068B3
:100AF00000F00C0004280DD0F648006800F00C004F
:100B0000082813D1F348001F006800F48000B0F5F6
:100B1000800F0BD1EF4808380068C0F34040002830
:100B200059D06068002856D10120D9E700BF60681D
:100B3000B0F5803F08D1E7480838006840F48030BD
:100B4000E449083908601EE06068B0F5A02F0DD1B7
:100B5000E0480838006840F48020DE490839086021
:100B60000846006840F4803008600CE0D948083836
:100B7000006820F48030D7490839086008460068CA
:100B800020F48020086000BF606890B1FFF738FD56
:100B9000054606E0FFF734FD401B642801D9032019
:100BA0009EE7CC4808380068C0F340400028F1D0E8
:100BB00011E0FFF725FD054606E0FFF721FD401B8C
:100BC000642801D903208BE7C24808380068C0F3C5
:100BD00040400028F1D1207800F0020002285FD1C7
:100BE000BC48006800F00C0058B1BA48006800F03A
:100BF0000C0008281CD1B748001F006800F48000D2
:100C0000B0B9B44808380068C0F3400020B1E068CB
:100C1000012801D0012063E7AE480838006820F0C1
:100C2000F800216940EAC100AA490839086037E0A4
:100C3000E06800B30120A8490860FFF7E1FC054621
:100C400006E0FFF7DDFC401B022801D9032047E73F
:100C5000A04808380068C0F340000028F1D09D4843
:100C60000838006820F0F800216940EAC10099497D
:100C70000839086014E0002097490860FFF7C0FCBD
:100C8000054606E0FFF7BCFC401B022801D9032003
:100C900026E7904808380068C0F340000028F1D1EA
:100CA000207800F0080008282CD16069A8B1012044
:100CB0008A490860FFF7A4FC054606E0FFF7A0FCA0
:100CC000401B022801D903200AE782486C300068E3
:100CD000C0F340000028F1D014E000207F490860F4
:100CE000FFF78EFC054606E0FFF78AFC401B022852
:100CF00001D90320F4E677486C300068C0F3400067
:100D00000028F1D1207800F00400042870D10027D9
:100D100070483830006800F0805090B900BF002063
:100D200000906C483830006840F080506949383194
:100D300008600846006800F08050009000BF00BFC7
:100D400001276748006800F48070B0B96448006803
:100D500040F4807062490860FFF752FC054606E0E7
:100D6000FFF74EFC401B022801D90320B8E65C487F
:100D7000006800F480700028F2D000BFA06801284D
:100D800008D154486830006840F00100514968318A
:100D900008601DE0A06805280DD14E486830006845
:100DA00040F004004B49683108600846006840F094
:100DB000010008600CE047486830006820F001003E
:100DC0004449683108600846006820F00400086063
:100DD00000BFA068A8B1FFF713FC054609E0FFF7C4
:100DE0000FFC401B41F28831884202D9032077E68C
:100DF00026E0384868300068C0F340000028EED094
:100E000013E0FFF7FDFB054608E0FFF7F9FB401B89
:100E100041F28831884201D9032061E62D486830CB
:100E20000068C0F340000028EFD1012F07D1294806
:100E30003830006820F0805026493831086000BF03
:100E4000A069002845D02348006800F00C0008285D
:100E50005DD0A069022845D100201F490866FFF730
:100E6000CFFB054606E0FFF7CBFB401B022801D96C
:100E7000032035E6174808380068C0F340600028B2
:100E8000F1D1D4E907010843616A40EA81110122E6
:100E9000A06AC2EB500041EA00412C20005D41EA0B
:100EA00000600C49091F086001200B490866FFF724
:100EB000A7FB054606E0FFF7A3FB401B022801D96C
:100EC00003200DE6034808380068C0F3406000289E
:100ED000F1D049E00838024000004742800E474206
:100EE00000700040002021490866FFF789FB054695
:100EF00006E0FFF785FB401B022801D90320EFE540
:100F00001B480068C0F340600028F2D12CE0A069C3
:100F1000012800D1E4E51648001D0668A0690128F3
:100F200020D006F48001E06981421BD106F03F0128
:100F3000206A814216D147F6C0703040616AB0EB3A
:100F4000811F0FD106F440310122A06AC2EB50008C
:100F5000B1EB004F06D106F070612C20005DB1EBC3
:100F6000006F01D00120BBE50020B9E50000474239
:100F70000038024070B504462546681EB0F1807FF7
:100F800001D301200FE0681E4FF0E02148610F21DE
:100F90004FF0FF3000F0FCFC00204FF0E0218861B2
:100FA00007200861002070BD7047704730B50246C9
:100FB0000B4600BF92F83C00012801D1022030BD51
:100FC000012082F83C0000BF022082F83D0010683A
:100FD00044681068816824F070041868044310683D
:100FE0004460184D1068A8421BD01068B0F1804FC3
:100FF00017D0154D1068A84213D0144D1068A842A0
:101000000FD0134D1068A8420BD0124D1068A842A3
:1010100007D0114D1068A84203D0104D1068A842A7
:1010200005D121F0800158680143106881600120DA
:1010300082F83D0000BF002082F83C0000BF00BFE6
:10104000BDE700000000014000040040000800402F
:10105000000C004000040140004001400018004026
:1010600010B504460CB9012010BD94F83D0028B914
:10107000002084F83C00204600F026F8022084F886
:101080003D00211D206800F0EBFA012084F84600A5
:1010900000BF84F83E0001213F200155402001554A
:1010A0004120015500BF00BF012084F842004320C9
:1010B0000155442001554520015500BF012084F809
:1010C0003D000020D0E7000038B504460E492068F6
:1010D000884217D100BF002000900C48006840F003
:1010E00010000A4908600846006800F010000090EF
:1010F00000BF00BF002211463620FFF715FB362047
:10110000FFF7FEFA38BD00000010004040380240F2
:10111000014691F83D00012801D0012070470220CE
:1011200081F83D000868C06840F001000B68D86095
:101130001A4B086898421BD00868B0F1804F17D04E
:10114000174B0868984213D0164B086898420FD086
:10115000154B086898420BD0144B0868984207D08A
:10116000134B0868984203D0124B086898420CD180
:101170000868806800F00702062A0CD0086800683A
:1011800040F001000B68186005E00868006840F056
:1011900001000B6818600020C0E70000000001405B
:1011A0000004004000080040000C00400004014022
:1011B0000040014000180040704770B504462068A8
:1011C000C5682068066906F00200022819D105F0FA
:1011D0000200022815D1401F2168086101202077F4
:1011E0002068806900F0030018B12046FFF7E4FF93
:1011F00005E0204600F097F8204600F095F8002022
:10120000207706F00400042819D105F00400042812
:1012100015D1C043216808610220207720688069C9
:1012200000F4407018B12046FFF7C6FF05E02046E5
:1012300000F079F8204600F077F80020207706F0DB
:101240000800082819D105F00800082815D1C04366
:1012500021680861042020772068C06900F003003D
:1012600018B12046FFF7A8FF05E0204600F05BF824
:10127000204600F059F80020207706F010001028D2
:1012800019D105F01000102815D1C043216808615C
:10129000082020772068C06900F4407018B120460B
:1012A000FFF78AFF05E0204600F03DF8204600F0F9
:1012B0003BF80020207706F0010048B105F001005E
:1012C00030B16FF0010021680861204600F02EF86F
:1012D00006F08000802809D105F08000802805D123
:1012E000C043216808612046FFF75EFE06F040001B
:1012F000402809D105F04000402805D1C0432168AD
:101300000861204600F01EF806F02000202809D1D0
:1013100005F02000202805D1C0432168086120463F
:10132000FFF743FE70BD70477047000010B50446DC
:1013300003492068884201D1FFF768F910BD000019
:1013400000100040704710B504460CB9012010BDD4
:10135000A06900B100E000BF94F8410028B9002066
:1013600084F84000204600F029F8242084F8410049
:101370002068C06820F400502168C860204600F052
:10138000DFF92068006920F4904021680861206836
:10139000406920F02A00216848612068C06840F454
:1013A00000502168C86000206064202084F841005B
:1013B00084F842000020606300BFC8E710B586B023
:1013C00004462149206888423CD100BF002000909B
:1013D0001E48006840F001001C490860084600688B
:1013E00000F00100009000BF00BF00BF002000908F
:1013F00016481430006840F0100014491431086099
:101400000846006800F01000009000BF00BF4815BB
:1014100001900220029001200390022004900720F6
:10142000059001A90A48FEF7DDFF4FF480600190A6
:1014300001A90748FEF7D6FF2068C06820F04000E9
:101440002168C86006B010BD00100140303802406D
:101450000000024000BFFEE700B587B000BF0020DB
:1014600001902148006840F080001F49086008464C
:10147000006800F08000019000BF00BF00BF0020A6
:1014800001900846006840F00200086008460068C5
:1014900000F00200019000BF00BF00BF00200190DB
:1014A0000846006840F0010008600846006800F047
:1014B0000100019000BF00BF0320029001200390B3
:1014C00004900320059002A90848FEF78BFF002234
:1014D00001210648FFF78EF8002202210348FFF79A
:1014E00089F807B000BD0000303802400004024017
:1014F00010B5074A0021074800F018FB06490860AC
:101500000846006810B905A000F032FA10BD0000CE
:101510005C3900083D150008100000206F73546806
:10152000726561644E6577206572726F72210D0A73
:101530000000000000BFFEE77047000000BF00226F
:1015400001210848FFF756F84FF4FA70FEF736FF0E
:10155000012211460348FFF74DF84FF4FA70FEF7E9
:101560002DFFECE70004024010B54FF0E0200069C9
:1015700001F050FF012801D001F03EFD10BD000038
:1015800000B593B0302107A8FEF7D6FE142102A8BB
:10159000FEF7D2FE00BF002001902648006840F010
:1015A0008050244908600846006800F0805001908F
:1015B00000BF00BF00BF002001901F48006840F43A
:1015C00040401D4908600846006800F44040019012
:1015D00000BF00BF012007900004089002200D907A
:1015E00041050E910F210F91D821109102211191E7
:1015F0000421129107A8FFF76FFA08B1FEF7DBFE8E
:10160000FFF7E4F808B1FEF7D6FE0F2002900220A3
:101610000390002004904FF4A05005904FF48050A8
:101620000690052102A8FFF717F908B1FEF7C3FEDF
:1016300013B000BD4038024000700040034800680D
:1016400040F47000014908607047000088ED00E038
:1016500010B50248FFF7B1FD10BD0000E00000200A
:1016600010B502682B4B98420ED0B0F1804F0BD0D2
:10167000294B984208D0294B984205D0284B9842D4
:1016800002D0284B984203D122F070024B681A43D3
:10169000204B984220D0B0F1804F1DD01E4B984275
:1016A0001AD01E4B984217D01D4B984214D01D4B98
:1016B000984211D01C4B98420ED01C4B98420BD034
:1016C0001B4B984208D01B4B984205D01A4B9842AE
:1016D00002D01A4B984203D122F44072CB681A43CD
:1016E00022F080034C6943EA04028B68C3620B68F2
:1016F0008362084B984202D00A4B984201D10B6991
:101700000363036843F00403036001234361026041
:1017100010BD00000000014000040040000800402F
:10172000000C004000040140004001400044014022
:101730000048014000180040001C0040002000400C
:101740002DE9F84F04462068006920F44050E16814
:101750000843216808612169A0680843616908435A
:10176000E169084300902068C06849F20C61884331
:10177000009908432168C8602068406920F44070DF
:10178000A16908432168486176492068884203D0EE
:1017900075492068884203D1FFF736F9814602E097
:1017A000FFF722F98146E069B0F5004F6CD10220C5
:1017B0006168A0FB015003461920A9FB0070014697
:1017C0002A463846FEF76EFD6421B0FBF1F04FEA81
:1017D000001A02206168A0FB01510B461920A9FBE9
:1017E00000712A463846FEF75DFD83460220616897
:1017F000A0FB015003461920A9FB00712A46384678
:10180000FEF750FD6421B0FBF1F000EBC00101EBED
:101810000010ABEB8000322101EBC0006421B0FB73
:10182000F1F000F0F8000AEB400A02206168A0FB2A
:10183000015003461920A9FB007001462A4638468C
:10184000FEF730FD834602206168A0FB015003468D
:101850001920A9FB00712A463846FEF723FD6421B2
:10186000B0FBF1F000EBC00101EB0010ABEB80002E
:10187000322101EBC0006421B0FBF1F000F0070061
:101880005044216888606AE004206168A0FB015030
:1018900003461920A9FB007001462A463846FEF788
:1018A00001FD824604206168A0FB01500346192017
:1018B000A9FB007001462A463846FEF7F3FC642176
:1018C000B0FBF1F000EBC00101EB0010AAEB8000CF
:1018D000322101EB00106421B0FBF1F000F0F00ABE
:1018E00004206168A0FB017003461920A9FB005188
:1018F0003A462846FEF7D6FC6421B0FBF1F00AEB2D
:10190000001A04206168A0FB01510B461920A9FBB5
:1019100000712A463846FEF7C5FC834604206168FC
:10192000A0FB015003461920A9FB007001462A467E
:101930003846FEF7B7FC6421B0FBF1F000EBC001C4
:1019400001EB0010ABEB8000322101EB00106421B1
:10195000B0FBF1F000F00F00504421688860BDE852
:10196000F88F0000001001400014014000BFFEE7A6
:10197000014A024900F032B8011A00089400002020
:1019800002480068C0F30220704700000CED00E040
:1019900010B5002804DB0A07130E054A135406E0AD
:1019A0000A07140E034A00F00F031B1FD45410BD86
:1019B00000E400E018ED00E0EFF30580704702E07E
:1019C00008C8121F08C1002AFAD1704770470020CA
:1019D00001E001C1121F002AFBD170472DE9F0413F
:1019E00016460F460446002503E03946B047641CFE
:1019F0006D1C20780028F8D12846BDE8F081000051
:101A000000BF054A126802F04002002AF9D0C2B2B3
:101A1000014B5A607047000000100140FEF702FEC3
:101A2000FFF7AEFDFFF718FD4FF4E13000F0B4FF13
:101A300000F08CFF1448FFF76BFB14A0FFF798FF32
:101A400000F02EF8FFF754FD00F040F81BE00022F4
:101A500002211248FEF7CEFD012211460F48FEF783
:101A6000C9FD4FF4FA70FEF7A9FC012202210B48D0
:101A7000FEF7C0FD002201210848FEF7BBFD4FF430
:101A8000FA70FEF79BFCE2E7E000002048656C6C12
:101A90006F20576F726C64210D0A00000004024031
:101AA00010B5FFF789FF10B16FF0050409E0064893
:101AB000006820B9012004490860002401E04FF0CB
:101AC000FF34204610BD00006800002070B5FFF70D
:101AD00073FF10B16FF005041FE011480068012882
:101AE00019D100BF801F0021002804DB0A07130E54
:101AF0000C4A135406E00A07150E0B4A00F00F03B8
:101B00001B1FD55400BF00BF02200549086001F02B
:101B10000BF9002401E04FF0FF34204670BD0000B7
:101B20006800002000E400E018ED00E02DE9FF4728
:101B300080468946144600200390FFF73DFF0028A9
:101B40004ED1B8F1000F4BD0802618258246471E93
:101B500044B3206808B1D4F800A0A06900B1A56919
:101B60002DB1382D03D8207900F0010018B10020E4
:101B700004B0BDE8F087606908B160698608A068B4
:101B800040B1E0685C2805D3206918B1606908B1EC
:101B9000012708E0A06830B9E06820B9206910B9D1
:101BA000002700E00027012F0CD12169A0684B46D7
:101BB0003246CDE9005102905146404601F00AFC00
:101BC00003900DE067B903A8B2B24B465146CDE988
:101BD0000050404601F0E2FB012801D000200390B4
:101BE0000398C5E72DE9F04705460E4623480768E8
:101BF0002348D0F800802348D0F80090224800689D
:101C0000001D00F0DFFE681CE0B9DEB100BF1F4917
:101C100048681D49096888601B4982680968CA606C
:101C200019490968091D8268516017490968091D29
:101C30008160164A144909684A6111460968491CBD
:101C4000116018E07C19104800684460BC4206D25C
:101C50000D480168091D484600F0FBFE0BE00A48EC
:101C60000168091D404600F0F4FE094800688442FE
:101C700001D207480460BDE8F0870000280000207A
:101C8000180000201C00002014000020D8050020AF
:101C90004400002010B5044600F0F6FE3448006809
:101CA000401C334908603348006840B9314804603B
:101CB0000846006801280DD100F0A2FA0AE02E487B
:101CC000006838B92B480068C06AE16A884201D8C8
:101CD0002848046029480068401C284908600846D4
:101CE0000068606400BF00BF2549E06A0968884257
:101CF00002D92349E06A086000BF00BFE16A01EB36
:101D00008101204A02EB81014868A0608268E2609C
:101D1000211D826851608160E16A01EB8101194AED
:101D200002EB81026261E16A01EB8101154A52F81E
:101D30002110491CE26A02EB8202124B43F8221086
:101D400000BF00BF00F0CAFE0B48006878B100BFBA
:101D500008480068C06AE16A884207D24FF08050A4
:101D600009490860BFF34F8FBFF36F8F00BF10BDED
:101D7000240000201400002030000020400000203B
:101D80002C0000202801002004ED00E008B500F040
:101D90007BFE0E480068A8B90D4800F04AFE0D48C9
:101DA00000F047FE0A480C4908600A480B490860E1
:101DB00000200B4B0B4A102100900A2001F036F94D
:101DC0000249086000F08AFE08BD00005C000020A7
:101DD000A40A0020B80A0020540000205800002067
:101DE000CC0A00201C0B002010B516E000F04CFEC1
:101DF0000C48C068C468201D00F0E4FD0A48006873
:101E0000401E0949086009480068401E07490860EB
:101E100000F064FE204600F0F0F804480068002856
:101E2000E4D110BDC40500202400002020000020C3
:101E300070B504460D46206C70B1216CE068014419
:101E4000E160D4E90210884201D32168E1602846AC
:101E5000226CE168FEF757FA70BD0000F0B58BB058
:101E600001260027002508E01AA0405D07A9485573
:101E700007A8405D00B902E06D1C102DF4DB00BF27
:101E8000002421E0154F00200690059004AA05A922
:101E900006A800F0ABFD0022DDE905101346CDE9F0
:101EA0000021029007A93846049A01F093FA0C49E0
:101EB00041F82400084650F8240008B1012600E04B
:101EC000002606B902E0641C012CDBDB00BF3046B3
:101ED0000BB0F0BD49444C4500000000E120000873
:101EE000480000202DE9FF4F85B0074688469146FF
:101EF000DDE9144BDDE912A60EB1012000E000205F
:101F000050B900BF502080F31188BFF34F8FBFF34B
:101F10006F8F00BF00BFFEE70CB1012000E0002082
:101F200050B900BF502080F31188BFF34F8FBFF32B
:101F30006F8F00BF00BFFEE75C20049004985C2810
:101F400001D1012000E0002050B900BF502080F3F3
:101F50001188BFF34F8FBFF36F8F00BF00BFFEE745
:101F600000BFB4B1AEB125465C212846FEF7E4F9C6
:101F70002C462E63022085F859000020CDE900ABE5
:101F8000CDE902504A4641463846089B00F0D1F858
:101F900000E00025284609B0BDE8F08F2DE9FF5F7D
:101FA0000746884616469946DDE90EABB00000F0BC
:101FB000BBFB054675B15C2000F0B6FB04462CB1B6
:101FC0005C212046FEF7B8F9256304E0284600F0BE
:101FD000A3FD00E0002464B1002084F859004B46C2
:101FE00032464146CDE900ABCDE90240384600F02B
:101FF000A0F8204604B0BDE8F09F10B5044694F860
:10200000590030B9206B00F087FD204600F084FDB8
:102010001AE094F85900012803D1204600F07CFD15
:1020200012E094F85900022801D1012000E00020BC
:1020300050B900BF502080F31188BFF34F8FBFF31A
:102040006F8F00BF00BFFEE710BD00000146084AC9
:10205000126812680AB9012200E000220A600A68C8
:1020600022B9034A1268D268106800E00020704765
:102070005400002030B54FF48053144800F007049A
:102080002CB1C01D20F00700104C041B1B1B104C72
:10209000206000240E4D6C60C218083A22F007023E
:1020A0000C4C226000240B4D2D686C60094D2D688E
:1020B0002C600146541A4C60064C24680C60064D96
:1020C0004C682C60054D4C682C6030BDBC0B00206A
:1020D0006C000020740000207C00002078000020AC
:1020E00000BFFFF781FE064800680128F9D94FF0CC
:1020F000805004490860BFF34F8FBFF36F8FF0E744
:102100002801002004ED00E02DE9F04106460D46CF
:1021100017469846069C0DB9246000E02760E663E8
:1021200025640121204600F0CFFF84F84C80BDE8F3
:10213000F0812DE9F05F82460F4690469B460A9E4D
:102140000C9C4FEA8801A522206BFEF7EEF8A8F15F
:102150000100216B01EB800929F0070909F0070054
:1021600008B9012000E0002050B900BF502080F3E2
:102170001188BFF34F8FBFF36F8F00BF00BFFEE723
:102180007FB1002507E0795D04F134004155785DA9
:1021900000B902E06D1C102DF5D300BF00214320D3
:1021A0000155382E01D2012000E0002050B900BFB7
:1021B000502080F31188BFF34F8FBFF36F8F00BFA4
:1021C00000BFFEE7382E00D33726E662E664201D06
:1021D00000F03CFC04F1180000F038FC2461C6F16A
:1021E0003800A06164625A465146484600F098FBA8
:1021F00020600B9808B10B980460BDE8F09F0000C8
:1022000010B5002407E004EB84010F4A02EB8100C3
:1022100000F00FFC641C382CF5D30C4800F009FCCE
:102220000B4800F006FC0B4800F003FC0A4800F0E5
:1022300000FC0A4800F0FDFB044809490860044816
:102240000849086010BD0000280100208805002012
:102250009C050020B0050020C4050020D805002002
:10226000180000201C00002010B50146234800E0A3
:10227000006803688B42FBD3204B984215D0204B5B
:10228000984205D303F6FF73984201D8012300E07A
:10229000002353B900BF502383F31188BFF34F8F3E
:1022A000BFF36F8F00BF00BFFEE7024643681344D1
:1022B0008B4204D143684C682344436001460A467C
:1022C0004B6813440468A34211D10E4C0368246880
:1022D000A34208D04B680468646823444B600368D9
:1022E0001B680B6005E0074B1B680B6001E003688F
:1022F0000B60884200D0016010BD00006C0000201F
:10230000BC0B0020740000202DE9F04104460D466E
:1023100016461F464FF0000865602461B5420CD890
:10232000F01BA169884202D34FF0010811E0211D82
:102330000948006800F08DFB0BE0BE4204D2BD42AC
:1023400002D34FF0010804E0211D0448006800F0AA
:1023500080FB4046BDE8F08158000020540000207A
:1023600070B5054600F090FBA86B08B9012400E0A9
:10237000002400F0B3FB204670BD000070B5054698
:102380000E460E480068C068C468201D00F01AFBA5
:1023900094F8280000F0040028B13246294620466F
:1023A00000F0F2F805E094F8280000F0FE0084F850
:1023B00028002046216A884770BD00005400002094
:1023C00070B586B00020029003900490059094E0D0
:1023D0000298002811DA03AE56B900BF502080F3EE
:1023E0001188BFF34F8FBFF36F8F00BF00BFFEE7B1
:1023F000D6E90020B168904700BF029800287CDB36
:10240000049C606908B9012000E0002010B9201D7B
:1024100000F0D8FA01A800F0E3F8054602980A286F
:1024200069D2DFE800F06805072E365806082F3716
:1024300000BF00BF00BF94F8280040F0010084F8FE
:1024400028000398A269811803462A462046FFF710
:102450005BFFA8B194F8280000F0040038B103989D
:10246000A26981182A46204600F08EF805E094F80B
:10247000280000F0FE0084F828002046216A8847E2
:102480003AE000BF94F8280000F0FE0084F828002D
:1024900032E000BF94F8280040F0010084F82800E2
:1024A0000398A061A06908B1012000E0002050B9A4
:1024B00000BF502080F31188BFF34F8FBFF36F8FA1
:1024C00000BF00BFFEE7A06941192B462A462046FF
:1024D000FFF71AFF10E094F8280000F0020018B986
:1024E000204600F019FB05E094F8280000F0FE00FB
:1024F00084F8280000E000BF00BF002202A90448C1
:10250000006800F04FFE00287FF462AF06B070BD97
:102510005C000020F8B505460C4600F043FC684618
:1025200000F05EF80646009820BB44B9B54206D8D4
:1025300001F0FAF831462846FFF720FF1CE03CB1D5
:102540000E480068006808B9012000E00020044639
:10255000A91B22460A48006800F05EFB01F0E4F87F
:1025600050B94FF0805007490860BFF34F8FBFF359
:102570006F8F01E001F0D8F8F8BD0000580000208E
:102580005C00002004ED00E070B504460D461646E0
:1025900004E0A06905442046216A8847A0694119E2
:1025A0002B4632462046FFF7AFFE0028F1D170BD22
:1025B00009480068006808B9012000E0002020B147
:1025C0004FF0FF300549086005E003480068C06827
:1025D000006802490860704718000020440000208D
:1025E00070B5044600F026FF05460748006885429E
:1025F00004D200F00BF80120206001E000202060F0
:1026000001480560284670BD6400002070B508E0F0
:102610000D480068C06804684FF0FF312046FFF79E
:10262000ADFE09480068006808B9012000E00020FC
:102630000028EDD004480568044800680249086095
:102640000248056070BD00005400002058000020C2
:102650000E480068401C08B9012000E0002050B975
:1026600000BF502080F31188BFF34F8FBFF36F8FEF
:1026700000BF00BFFEE700BF502080F31188BFF30A
:102680004F8FBFF36F8F00BF00BFFEE788000020B1
:1026900008B500BF6846FFF7D9FC044620460099FC
:1026A000FFF738FFFFF78CFEF4E770B5044600F043
:1026B000EBF994F9455010E0606A08B9012000E098
:1026C000002038B904F1240000F094FF18B100F0A4
:1026D000D5FA00E003E0681E45B2002DECDC00BF37
:1026E000FF2084F8450000F0F9F900F0CDF994F9E5
:1026F000445010E0206908B9012000E0002048B9EA
:1027000004F1100000F076FF08B100F0B7FA681E7F
:1027100045B200E001E0002DECDC00BFFF2084F8B2
:10272000440000F0DBF970BD2DE9F04705464FF09D
:102730000008DDB115F1090F01D9012000E00020EA
:1027400098B9083505F0070080B105F00700C0F121
:102750000809C9F1FF30A84201D2012000E00020A1
:1027600008B94D4402E0002500E0002500F01AFB06
:102770006548006808B9FFF77DFC012000EBE570B3
:10278000002870D0002DFCD06048006885426AD8CF
:102790005F4E304604685F48844205D300F6FF7000
:1027A000844201D8012000E0002050B900BF502031
:1027B00080F31188BFF34F8FBFF36F8F00BF00BF4F
:1027C000FEE717E0264624685248844205D300F607
:1027D000FF70844201D8012000E0002050B900BF02
:1027E000502080F31188BFF34F8FBFF36F8F00BF6E
:1027F00000BFFEE76068A84202D220680028E1D14D
:1028000041480068844268D0306800F108084148B7
:10281000804505D300F6FF70804501D8012000E017
:10282000002050B900BF502080F31188BFF34F8FB4
:10283000BFF36F8F00BF00BFFEE7206830606068A5
:10284000A84201D2012000E0002080F0010058B928
:1028500000BF502080F31188BFF34F8FBFF36F8FFD
:1028600000BF00BFFEE738E06068401B102819D9A0
:10287000671907F0070008B9012000E0002050B9EF
:1028800000BF502080F31188BFF34F8FBFF36F8FCD
:1028900000BF00BFFEE76068401B7860656030687D
:1028A00038603760194960680968081A1749086074
:1028B0000846006818490968884203D2134800682E
:1028C00015490860606840F00040606000202060AA
:1028D00012480068401C1149086000F025FF08F00C
:1028E000070008B9012000E0002050B900BF5020C7
:1028F00080F31188BFF34F8FBFF36F8F00BF00BF0E
:10290000FEE74046BDE8F087740000207800002014
:102910006C000020BC0B00207C0000208000002008
:10292000001F4FF080730360001F21F0010303605C
:10293000001F054B036014380260001F6FF0020394
:102940000360203870470000512600081CB50020A5
:10295000009001900E480F49086040F2E73048604F
:1029600000210C4881605921C16000218161FEF77E
:1029700077FB08B1FDF71FFD00200090019069462C
:102980000448FEF713FB08B1FDF715FD1CBD000060
:1029900000100040E000002010B504460748084938
:1029A00008600846446000218160C1600161816166
:1029B0000C214161FEF7C7FC10BD00000010014072
:1029C0009800002001460A69D1E901309860D1E9F8
:1029D000010358605068884201D188685060002027
:1029E00008611068401E106010687047034B036058
:1029F000034B0B608023136070470000EC05002040
:102A000048060020034B0360034B0B6080231360D8
:102A10007047000048080020A408002000BF502094
:102A200080F31188BFF34F8FBFF36F8F00BF00BFDC
:102A3000FEE700F1080141604FF0FF31816000F1D5
:102A40000801C1600161002101607047002101613E
:102A5000704710B502460B685C1C0CB9106907E0A2
:102A600002F1080000E04068446824689C42FAD9FA
:102A700044684C604C68A160886041600A611468D9
:102A8000641C146010BD000000BF502080F311884A
:102A9000BFF34F8FBFF36F8F00BF0E480068401C1D
:102AA0000C49086008460068012812D10A480068ED
:102AB000C0B208B9012000E0002050B900BF50208A
:102AC00080F31188BFF34F8FBFF36F8F00BF00BF3C
:102AD000FEE770478800002004ED00E00D48006824
:102AE00050B900BF502080F31188BFF34F8FBFF360
:102AF0006F8F00BF00BFFEE706480068401E054913
:102B000008600846006820B9002080F3118800BFE3
:102B100000BF70478800002070B506463546002E7D
:102B20005FD0083D2C462F48844205D300F6FF7045
:102B3000844201D8012000E0002050B900BF50209D
:102B400080F31188BFF34F8FBFF36F8F00BF00BFBB
:102B5000FEE76068C00F50B900BF502080F31188B5
:102B6000BFF34F8FBFF36F8F00BF00BFFEE720683A
:102B700008B9012000E0002050B900BF502080F3C8
:102B80001188BFF34F8FBFF36F8F00BF00BFFEE709
:102B90006068C00F28B3206818BB606820F0004050
:102BA00060606068082801D2012000E0002030B990
:102BB0006068A0F1080105F10800FDF7BDFB00F019
:102BC000F1F8094960680968084407490860204627
:102BD000FFF74AFB05480068401C0449086000F004
:102BE000A3FD70BDBC0B00207800002084000020F5
:102BF00000204FF0E02108618861064800684FF42A
:102C00007A71B0FBF1F0401E4FF0E02148610720DF
:102C100008617047000000202DE9F04105460E468E
:102C200017462C46FFF730FF94F94400401C10B9BA
:102C3000002084F8440094F94500401C10B900209D
:102C400084F84500FFF74AFFA06B28B93A463146A1
:102C500004F1240000F034F82046FFF726FDBDE81B
:102C6000F081000003490968016003490968416077
:102C7000704700003C00002028000020012001498E
:102C8000086070473800002070B504460D4654B9FE
:102C900000BF502080F31188BFF34F8FBFF36F8FB9
:102CA00000BF00BFFEE70548016818312046FFF766
:102CB000D0FE01212846FEF795FF70BD14000020CC
:102CC00070B504460E46154654B900BF502080F337
:102CD0001188BFF34F8FBFF36F8F00BF00BFFEE7B8
:102CE00000BF60680F490968C8610E4982680968B9
:102CF0000A620C49096818318268516009490968FB
:102D000018318160074909688C622168491C21607B
:102D100000BF0DB14FF0FF3629463046FEF762FF87
:102D200070BD00001400002010B5FFF797F80446AE
:102D3000012C02D100F0CAFD0446012C15D100BFC0
:102D4000502080F31188BFF34F8FBFF36F8F00BF08
:102D50004FF0FF300F49086001200F490860002044
:102D60000E49086000F094F810E0601C08B10120E2
:102D700000E0002050B900BF502080F31188BFF35D
:102D80004F8FBFF36F8F00BF00BFFEE7044800689E
:102D900010BD00004400002030000020280000206A
:102DA0004C00002002480068401C01490860704740
:102DB0005000002070B53148006818B1012030493A
:102DC000086059E000202E49086000BF2D480068C7
:102DD000046B4FF0A5362068B0F1A53F0BD16068B9
:102DE000B0F1A53F07D1A068B0F1A53F03D1E068DD
:102DF000B0F1A53F09D02348006800F13405294609
:102E000020480068FFF70AFE00BF00BF00BF1E4851
:102E100001680CE051B900BF502080F31188BFF366
:102E20004F8FBFF36F8F00BF00BFFEE7491E01EB5E
:102E30008100164A52F8200008B9012000E0002065
:102E40000028E7D100BF01EB8102104B03EB8200A9
:102E500042685268426000F108024368934201D11F
:102E6000C26842604268D268064B1A6000BF0648DA
:102E7000016000BF1846006870BD000050000020CF
:102E800038000020140000202C0000202801002021
:102E90000EB5524800685249884201D0012000E036
:102EA000002050B900BF502080F31188BFF34F8F2E
:102EB000BFF36F8F00BF00BFFEE748480068484976
:102EC000491E884201D0012000E0002050B900BF17
:102ED000502080F31188BFF34F8FBFF36F8F00BF77
:102EE00000BFFEE7002001903E49084600780290AE
:102EF000FF200A4610700846007800909DF80000F8
:102F000000F05000384A10701046007850B900BFE9
:102F1000502080F31188BFF34F8FBFF36F8F00BF36
:102F200000BFFEE79DF800205020904308B9012023
:102F300000E0002050B900BF502080F31188BFF39B
:102F40004F8FBFF36F8F00BF00BFFEE707E0019810
:102F5000401C01909DF800004006000E00909DF876
:102F6000000000F080008028F1D00198082803D1EB
:102F700000201E4A106004E00198C0F107001B4ABF
:102F800010601A4800680002184A10601046008855
:102F900000F4E06010609DF80800124A10700F48BD
:102FA0002030006840F47F000C492031086008465A
:102FB000006840F07F400860FFF71AFE00200C49CF
:102FC0000860FDF721F90B48006840F040400949CE
:102FD0000860FDF705F900200EBD000000ED00E0DF
:102FE00071C20F4100E400E08C000020900000203E
:102FF0008800002034EF00E010B500BF502080F3BF
:103000001188BFF34F8FBFF36F8F00BF00F018FA26
:1030100018B14FF080500449086000BF002080F3D1
:10302000118800BF10BD000004ED00E02DE9F84359
:1030300080460E4617461C46DDF82090002554B900
:1030400000BF502080F31188BFF34F8FBFF36F8F05
:1030500000BF00BFFEE7B8F1000F25D024B307B1D1
:1030600016B307B906BB502000900098502801D134
:10307000012000E0002050B900BF502080F31188EB
:10308000BFF34F8FBFF36F8F00BF00BFFEE700BFDE
:103090002546012085F846004B463A4631464046D3
:1030A0000095FFF731F80BE055B900BF502080F3D1
:1030B0001188BFF34F8FBFF36F8F00BF00BFFEE7D4
:1030C0002846BDE8F88300002DE9F04105460E468C
:1030D00001272C4654B900BF502080F31188BFF35C
:1030E0004F8FBFF36F8F00BF00BFFEE7002C42D0B1
:1030F000E06B00283FD04FF0FF31E06BB1FBF0F008
:10310000216C884237D3FFF7BFFCD4E90F12206847
:1031100001FB0200A0600020A06320686060E06BFB
:10312000401E226C216800FB0211E160FF2084F840
:10313000440084F845009EB9206908B9012000E0E8
:103140000020A8B904F1100000F054FA80B14FF04B
:10315000805013490860BFF34F8FBFF36F8F07E0B4
:1031600004F11000FFF765FC04F12400FFF761FC97
:10317000FFF7B4FC00E000270FB1012000E00020C1
:1031800050B900BF502080F31188BFF34F8FBFF3B9
:103190006F8F00BF00BFFEE73846BDE8F08100003A
:1031A00004ED00E02DE9F74183B005460E464FF0EF
:1031B00000082C4654B900BF502080F31188BFF39B
:1031C0004F8FBFF36F8F00BF00BFFEE70EB9206CBB
:1031D00008B9012000E0002050B900BF502080F362
:1031E0001188BFF34F8FBFF36F8F00BF00BFFEE7A3
:1031F00000F010F908B9059808B9012000E0002096
:1032000050B900BF502080F31188BFF34F8FBFF338
:103210006F8F00BF00BFFEE700BFFFF735FCA76B55
:10322000F7B131462046FEF703FE781EA063206901
:1032300008B9012000E0002060B904F1100000F09E
:10324000D9F938B14FF080502F490860BFF34F8F44
:10325000BFF36F8FFFF742FC012006B0BDE8F0819D
:10326000059818B9FFF73AFC0020F6E7B8F1000F0F
:1032700004D101A8FFF7F6FC4FF00108FFF72EFC80
:10328000FFF790FDFFF700FC94F94400401C10B9D3
:10329000002084F8440094F94500401C10B9002037
:1032A00084F84500FFF71AFC05A901A800F02EF8E4
:1032B000F0B92046FFF754F8A0B104F124000599B5
:1032C000FFF7E2FC2046FFF7F0F900F02DFA0028A6
:1032D000A3D14FF080500C490860BFF34F8FBFF36C
:1032E0006F8F9AE72046FFF7E0F900F01DFA94E7A8
:1032F0002046FFF7DAF900F017FA2046FFF730F81A
:1033000000288AD00020A8E704ED00E070B505464B
:103310000C4655B900BF502080F31188BFF34F8F82
:10332000BFF36F8F00BF00BFFEE754B900BF50204E
:1033300080F31188BFF34F8FBFF36F8F00BF00BFC3
:10334000FEE7FFF7A1FB134802686868131A2068BC
:10335000401C08B9002619E00F492868096888420E
:1033600006D06868904203D80126002020600DE056
:103370002068984207D92068C01A20602846FFF7C5
:1033800071FC002602E0002020600126FFF7A6FB6A
:10339000304670BD280000203C0000202DE9FC5F75
:1033A00006460F4690469946DDE90CAB4B46424631
:1033B00039463046CDE900ABFEF7F0FD054625B1B4
:1033C0002846FEF767FC012401E04FF0FF34204659
:1033D000BDE8FC9F2DE9F04F85B005460E46174627
:1033E0009846DDE90FABDDF838900020049004A882
:1033F00043463A4631468DE8000E03902846FEF7D4
:1034000071FD044614B12046FEF744FC049805B053
:10341000BDE8F08F0549096809B9012005E00449B4
:10342000096809B9022000E0002070473000002040
:103430005000002001490868704700002800002063
:103440002DE9F0414FF000085F48006800287DD169
:103450005E480068451C5D4805601DBB00BF5C48B8
:103460000068006808B9012000E0002050B900BFE2
:10347000502080F31188BFF34F8FBFF36F8F00BFD1
:1034800000BFFEE75248076852480068504908608C
:103490005048076050480068401C4F490860FFF7DB
:1034A00087F800BF4D48006885427FD300BF484879
:1034B0000068006808B9012000E0002020B14FF04A
:1034C000FF304649086070E041480068C068C46841
:1034D0006668B54202D24148066066E000BF606996
:1034E000D4E902128A60D4E902214A60211D4268AF
:1034F0008A4201D1E1684160002262610168491E8F
:10350000016000BFA06AA0B100BFA06AD4E90712A1
:103510008A60D4E907214A6004F1180142688A42AE
:1035200001D1216A41600022A2620168491E016046
:1035300000BF00BF00BF2A49E06A0968884202D97B
:103540002749E06A086000BF00BF00E034E0E16A9C
:1035500001EB8101234A02EB81014868A060826887
:10356000E260211D826851608160E16A01EB8101A6
:103570001C4A02EB81026261E16A01EB8101194A96
:1035800052F82110491CE26A02EB8202154B43F803
:10359000221000BF00BF1449E06A0968C96A884266
:1035A00085D94FF0010882E700E000BF0F480068AE
:1035B00008B14FF0010804E00D480068401C0C49B8
:1035C00008604046BDE8F08150000020280000203F
:1035D000180000201C0000203C00002044000020B7
:1035E0002C000020280100201400002038000020BA
:1035F0003400002070B50346D868C16851B900BFD7
:10360000502080F31188BFF34F8FBFF36F8F00BF3F
:1036100000BFFEE700BF886AD1E90745A560D1E990
:103620000754656001F118044568A54201D10C6A90
:10363000446000258D620468641E046000BF344845
:103640000068002843D100BF4869D1E90245A56060
:10365000D1E9025465600C1D4568A54201D1CC68D2
:10366000446000254D610468641E046000BF00BF13
:1036700000BF284CC86A2468A04202D9254CC86AF9
:10368000206000BF00BFCC6A04EB8404224D05EB30
:103690008404606888608568CD600C1D85686C60F6
:1036A0008460CC6A04EB84041B4D05EB84054D61FA
:1036B000CC6A04EB8404184D55F82440641CCD6A90
:1036C00005EB8505144E46F8254000BF11E000BF0C
:1036D000124C6068C86185680D6201F11804856844
:1036E0006C6084600D4D8D622C462468641C2C60D7
:1036F00000BF0B4CC86A2468E46AA04204D90122C6
:103700000120084C206000E00022104670BD00003F
:10371000500000202C00002028010020B0050020CF
:1037200014000020380000202DE9F041002400277B
:10373000FFF7AAF900255C48006808B1012000E005
:10374000002050B900BF502080F31188BFF34F8F85
:10375000BFF36F8F00BF00BFFEE753480068401EF5
:10376000514908600846006800286FD14F4800683A
:1037700000286BD065E04E48C068C46800BFA06AEE
:10378000D4E907128A60D4E907214A6004F11801DC
:1037900042688A4201D1216A41600022A262016826
:1037A000491E016000BF00BF6069D4E902128A604F
:1037B000D4E902214A60211D42688A4201D1E168B0
:1037C0004160002262610168491E016000BF00BFC4
:1037D00000BF3849E06A0968884202D93549E06A81
:1037E000086000BF00BFE16A01EB8101324A02EBD1
:1037F00081014868A0608268E260211D8268516092
:103800008160E16A01EB81012B4A02EB8102626176
:10381000E16A01EB8101284A52F82110491CE26A51
:1038200002EB8202244B43F8221000BF00BF234961
:10383000E06A0968C96A884203D90120204941F831
:1038400025001B48006810B9012001E026E0002097
:10385000002890D00CB1FEF7ABFE1A4806686EB196
:1038600000BFFFF7EDFD18B10120154941F8250013
:10387000761E002EF5D1002012490860104850F83D
:10388000250058B1012700BF0C48006838070E49D1
:103890000860BFF34F8FBFF36F8F00BFFFF71EF9B4
:1038A0003846BDE8F08100005000002024000020D0
:1038B000B00500202C00002028010020140000206A
:1038C000380000203400002004ED00E010B586B080
:1038D0000024FEF75BFA16480068D0B1002005907E
:1038E000049003AA04A905A8FFF78CF83722DDE9A4
:1038F00004100023CDE9002102900EA10F48039A85
:10390000FFF768FD0E4908600846006800B1012411
:1039100000BF54B900BF502080F31188BFF34F8F10
:10392000BFF36F8F00BF00BFFEE7204606B010BD9B
:103930005C000020546D72205376630091260008CD
:1039400060000020000000000000000001020304ED
:10395000060708090000000001020304803900087E
:103960000000000000000000000000000000000057
:1039700080000000180000000000000000000000AF
:1039800064656661756C745461736B00AC390008D2
:103990000000002098000000BE190008443A00080A
:1039A00098000020281F0000CE1900080024F40011
:1039B00000000000100000000100000000000000F6
:1039C00000000000000000000000000000000000F7
:1039D00000000000000000000000000000000000E7
:1039E00000000000000000000000000000000000D7
:1039F0000000000000000000370000000000000090
:103A000000000000000000000000000000000000B6
:103A100000000000000000000000000000000000A6
:103A20000000000000000000000000000000000096
:103A300000000000AAAAAAAA0000000000000000DE
:043A40000000000082
:04000005080001AD41
:00000001FF
