:020000040800F2
:10000000A8040020C1010008370F0008B90E00083D
:10001000350F0008CD020008B511000800000000EF
:100020000000000000000000000000003B0F00087E
:10003000CF02000800000000390F00083D0F000843
:10004000DB010008DB010008DB010008DB01000820
:10005000DB010008DB010008DB010008DB01000810
:10006000DB010008DB010008DB010008DB01000800
:10007000DB010008DB010008DB010008DB010008F0
:10008000DB010008DB010008DB010008DB010008E0
:10009000DB010008DB010008DB010008DB010008D0
:1000A000DB010008DB010008DB010008DB010008C0
:1000B000DB010008DB010008DB010008DB010008B0
:1000C000DB010008DB010008DB010008DB010008A0
:1000D000DB010008DB010008DB010008DB01000890
:1000E000DB010008DB010008DB010008DB01000880
:1000F000DB010008DB010008DB010008DB01000870
:10010000DB010008DB010008DB010008DB0100085F
:10011000DB010008DB010008FD0F0008DB0100081F
:10012000DB010008DB010008DB010008DB0100083F
:10013000DB010008DB010008DB010008DB0100082F
:10014000DB010008DB010008DB010008DB0100081F
:10015000DB010008DB010008DB010008DB0100080F
:10016000DB010008DB010008DB010008DB010008FF
:10017000DB010008DB010008DB01000800000000D3
:10018000DB010008DB010008DB010008DB010008DF
:10019000DB010008DB010008DB010008DB010008CF
:1001A000DB010008DB010008DB010008DFF80CD0F0
:1001B00000F07AF800480047ED110008A80400207C
:1001C0000648804706480047FEE7FEE7FEE7FEE7F1
:1001D000FEE7FEE7FEE7FEE7FEE7FEE7ED0F0008BD
:1001E000AD0100082DE9F05F0546002092469B46D0
:1001F00088460646814640241BE02846414647463D
:10020000224600F041F853465A46C01A914110D395
:1002100011461846224600F028F82D1A67EB01080F
:100220004F4622460120002100F01FF817EB00097D
:100230004E41201EA4F10104DFDC484631462A4627
:100240004346BDE8F09FD2B201E000F8012B491E01
:10025000FBD270470022F6E710B513460A46044663
:100260001946FFF7F0FF204610BD202A04DB203A94
:1002700000FA02F1002070479140C2F1200320FAF9
:1002800003F3194390407047202A04DB203A21FAF7
:1002900002F00021704721FA02F3D040C2F120029F
:1002A0009140084319467047064C074D06E0E06848
:1002B00040F0010394E8070098471034AC42F6D3AD
:1002C000FFF778FF3013000850130008FEE770476F
:1002D00072B6FEE7B0B5054600F0ECF804460648F5
:1002E000002D007818BF0544013D00F0E3F8001B25
:1002F000A842FAD3B0BD00BF040000202DE9FC4F96
:10030000634A0A274FF0010B4FF000094FF0000A33
:100310009042604A08BF092702444FEAB223092BE2
:1003200038BF4FEAB22700970027202F08BFBDE84B
:10033000FC8F0B680BFA0AF6334200F0A3804B687F
:1003400003F00308A8F10104012C18D803228568E2
:1003500002FA07F425EA040CCD686FEA040EBD40EA
:1003600045EA0C058560C3F3001505FA0AFC4568EB
:10037000B54345EA0C054FEA4A0C45600CE00325FD
:10038000B8F1030FBC4605FA07F56FEA050E03D175
:10039000BC464FF0030821E0C4688D68B8F1020F35
:1003A00004EA0E0405FA0CF544EA0504C46015D10C
:1003B00009F01C030F2202FA03F86FF0030202EAAD
:1003C0005A0505442C6A24EA08080C6904FA03F368
:1003D00043EA08032B624B6803F00308046808FA39
:1003E0000CF513F4403F04EA0E0445EA04050560E9
:1003F00048D0002209F00C040192294A136843F402
:10040000804313601368244A03F4804394460193A5
:100410002AF003031344234A019D96469D580F2258
:10042000A24025EA0202009DA5402A4343F80E207F
:10043000DCF808204D6842EA0603EC0258BF22EAC5
:100440000603164ACCF80830AC029646126842EA17
:10045000060358BF22EA0603CEF80030AC03DCF8EE
:10046000042042EA060358BF22EA0603CCF804300F
:10047000ED03DCF8002042EA060358BF22EA060337
:10048000CCF8003009F1040902370AF1010A4CE7FF
:10049000002402400000FEBF003C01400C3C014033
:1004A0004438024008FCFFFF002A08BF09048161AC
:1004B0007047000005480068704700BF1A480349AC
:1004C00000780A6810440860704700BFA000002050
:1004D00080B50B48016841F400710160016841F486
:1004E00080610160016841F480710160032000F0C7
:1004F00063F80F2000F006F800F018F8002080BD27
:10050000003C0240B0B50F280AD805464FF0FF3036
:1005100000220024294600F031F80348456000E03D
:1005200001242046B0BD00BF0400002082B000209E
:10053000424901904A6842F480424A604A6802F4A3
:1005400080420192019A0090086840F08050086053
:10055000086800F080500090009802B0704700BF1B
:10056000002808DB00F01F010122400902FA01F116
:10057000014A42F82010704700E100E080B5144BBA
:100580001B68C3F3022CBCF1030E8CF007034FF081
:10059000FF3C38BF4FF0000E042B28BF04230CFA99
:1005A00003F399430CFA0EF301FA0EF19A43114347
:1005B000BDE8804000F000BE05494FF6FF030A6821
:1005C0001A4060F30A22034810430860704700BFD6
:1005D0000CED00E00000FA057CB50020184E194D26
:1005E00001901648016841F080510160006800F0F8
:1005F00080500190019801203060FFF75BFF0446B6
:100600002868C00306D4FFF755FF001BB0F57A7FBA
:10061000F6D90DE001207060FFF74CFF0446286812
:10062000800307D4FFF746FF001BB0F57A7FF6D9A9
:10063000032000E0002002B070BD00BF403802403F
:1006400040000E42047000402DE9F041002800F007
:100650008780454B04468846D3F8000400F00F001D
:10066000884207D283F80084D3F8000400F00F001A
:10067000404575D12068810711D5410742BF99686F
:1006800041F4E0519960010742BF996841F460412B
:1006900099609968A26821F0F00111439960C00740
:1006A0002CD06068811E022903D21968890109D4FF
:1006B00056E0012803D11968890303D450E0196872
:1006C00089074DD599681D4621F0030108439860BC
:1006D000FFF7F0FE064641F2883707E0FFF7EAFE33
:1006E000801BB84284BF0320BDE8F081A868616820
:1006F0002B4600F00C00B0EB810FEFD1D3F80004D3
:1007000000F00F00404507D983F80084D3F80004B7
:1007100000F00F00404523D12068410705D59968B6
:10072000E26821F4E05111439960000706D598680A
:10073000216920F4604040EAC10098601C4600F046
:1007400033F8A168094AC1F30311515CC840134949
:10075000086007480068FFF7D5FE0020BDE8F0817B
:100760000120BDE8F08100BF0038024018130008E6
:100770000800002009480A490A4A00680968C1F3CC
:100780008221515CC840704704480549054A006809
:100790000968C1F34231515CC84070470C00002029
:1007A000083802402813000810B5134C606800F0A8
:1007B0000C00082804D0042814BF1048104810BDAD
:1007C000226820680023400202F03F020C485CBF10
:1007D00042F20040C0F2F4002168C1F38811A0FB8E
:1007E0000101FFF7FFFC21680222C1F3014102EB86
:1007F0004101B0FBF1F010BD043802400024F400C8
:1008000040787D012DE9FC41002800F03E8104463E
:100810000078BF4EC00743D0B06800F00C00042839
:1008200005D1306880033BD56068C8BB2DE1B06856
:1008300000F00C00082802D170684002F1D467680B
:10084000B7F5803F06D03068B7F5A02F12D140F43D
:1008500080203060306840F480303060FFF72AFE3E
:100860000546306880031BD4FFF724FE401B642834
:10087000F7D9ABE020F480303060306820F480207D
:100880003060FFF717FE0546002FEAD1306880037D
:1008900006D5FFF70FFE411B03206429F6D9F5E0CA
:1008A000207880072BD5B06810F00C0F07D0B06807
:1008B00000F00C00082809D17068400206D43068A6
:1008C000800715D5E068012812D0DEE0E068002836
:1008D0007ED0904801210160FFF7ECFD05463068AD
:1008E000800705D4FFF7E6FD401B0228F7D96DE02D
:1008F0003068216920F0F80040EAC10030602078BB
:10090000000720D56169834871B10121C0F8801EBC
:10091000FFF7D0FD0546706F800714D4FFF7CAFDBE
:10092000401B0228F7D951E00021C0F8801EFFF7D4
:10093000C1FD0546706F800705D5FFF7BBFD401B65
:100940000228F7D942E02078400771D5306C4FF08B
:100950000008C0000CD4CDF804804FF00108306CC2
:1009600040F080503064306C00F08050019001986D
:10097000694F3868C0050FD4386840F4807038601B
:10098000FFF798FD05463868C00505D4FFF792FDCE
:10099000401B0228F7D919E0A768012F05D0306F56
:1009A000052F26D140F004003067306F40F0010081
:1009B0003067FFF77FFD054641F28837306F8007CB
:1009C0002FD4FFF777FD401BB842F7D903205DE035
:1009D000504800210160FFF76DFD05463068800733
:1009E0007FF58DAFFFF766FD411B03200229F5D986
:1009F0004CE020F001003067306F20F004003067D9
:100A0000FFF758FD0546002FD6D141F28837306FE9
:100A1000800706D5FFF74EFD411B0320B942F6D9EA
:100A200034E0B8F1000F1EBF306C20F0805030640D
:100A3000A769002F6AD0B06800F00C00082828D100
:100A4000012F22D07068E16900F480028A421CD133
:100A5000216A00F03F028A4217D147F6C071626AEC
:100A60000140B1EB821F10D1A16A4FF6FF72C9039A
:100A7000914300F44032A1F580318A4205D1E16A08
:100A800000F07060B0EB016F40D0012002B0BDE813
:100A9000F0812049002088460866FFF70BFD0546D7
:100AA000022F09D13068800110D5FFF703FD411BEB
:100AB00003200229F6D9E9E73068800126D5FFF73F
:100AC000F9FC411B03200229F6D9DFE704F11C07DA
:100AD0008FCF0843D90340EA82104FF6FF7291434B
:100AE00040EA0760A1F58031084370600120C8F832
:100AF0006000FFF7DFFC04463068800106D4FFF792
:100B0000D9FC011B03200229F6D9BFE70020BDE76D
:100B100000380240000047420070004070477047B4
:100B200090F83C300222012B35D010B580F83D20E2
:100B3000012280F83C200268D2F804E0D2F808C014
:100B40000C68B2F1804F2EF0700343EA0403536047
:100B5000BDE8104014D04E4B9A4211D04D4B9A42F2
:100B60000ED04D4B9A420BD04C4B9A4208D04C4B76
:100B70009A4205D04B4B9A4202D04B4B9A4204D139
:100B800049682CF08003194391600022012180F80C
:100B90003C2080F83D101046704700BF40B310B5B0
:100BA000044690F83D0028B9002084F83C00204617
:100BB00000F020F80220211D84F83D00206800F09C
:100BC00021FA012084F8460084F83E0084F83F00B2
:100BD00084F8400084F8410084F8420084F843001F
:100BE00084F8440084F8450084F83D00002010BDDE
:100BF0000120704700687849884218BF7047E0B507
:100C0000002000220190F748016841F010010160C6
:100C10000021006800F01000019001983620FFF7D5
:100C2000ADFC3620BDE88C40FFF79ABC90F83D1033
:100C300001291CBF01207047022180F83D10006887
:100C4000C168B0F1804F41F00101C16014D010497A
:100C5000884211D00F4988420ED00F4988420BD0EC
:100C60000E49884208D00E49884205D00D49884275
:100C700002D00D49884204D1816801F0070106299C
:100C800003D0016841F0010101600020704700BFFE
:100C90000004004000080040000C00400018004024
:100CA0000000014000400140000401407047B0B521
:100CB00004460068C168026902EA0105A90713D564
:100CC0006FF002010161012121778069800703D063
:100CD0002046FFF7EBFF05E0204600F073F82046C2
:100CE00000F071F800202077680715D520686FF0B4
:100CF0000401016102212177806910F4407F03D053
:100D00002046FFF7D3FF05E0204600F05BF82046C1
:100D100000F059F800202077280714D520686FF0DC
:100D20000801016104212177C069800703D02046B2
:100D3000FFF7BCFF05E0204600F044F8204600F035
:100D400042F800202077E80615D520686FF01001E2
:100D5000016108212177C06910F4407F03D020464B
:100D6000FFF7A4FF05E0204600F02CF8204600F035
:100D70002AF800202077E80706D020686FF00101EC
:100D80000161204600F020F8280606D520686FF0A3
:100D9000800101612046FFF7C1FE680606D5206884
:100DA0006FF040010161204600F018F8A80658BF16
:100DB000B0BD20686FF0200101612046BDE8B04061
:100DC000FFF7ADBE7047704700680349884208BF0F
:100DD000FFF774BB704700BF00100040704758B366
:100DE00010B5044690F8410028B9002084F840006E
:100DF000204600F023F8242084F841002068C168D0
:100E000021F40051C160204600F06EF920680169AC
:100E100021F490410161416921F02A014161C168D9
:100E200041F40051C16000202021606484F8411029
:100E300084F84210606310BD0120704770B586B021
:100E40001C4D04460068A5F57041884230D1002051
:100E5000374901AE01900A6842F001020A600A684F
:100E600002F001020192019A0190486940F01000DD
:100E700048614869012100F01000019001980720A5
:100E8000059002200490CDE902014FF40070314634
:100E900001902846FFF732FA4FF480603146019006
:100EA0002846FFF72BFA2068C16821F04001C16095
:100EB00006B070BD00000240FEE7000010B586B02D
:100EC00000211B48E64C0191026842F0800202605A
:100ED000026802F080020192019A0191026842F0D8
:100EE00002020260026802F002020192019A01917C
:100EF000016841F0010101600121006800F001007A
:100F000001900198032004900391CDE9010101A90A
:100F10002046FFF7F3F9204601210022FFF7C4FA2B
:100F2000204602210022FFF7BFFA06B010BD00BF25
:100F300030380240FEE77047704770477047000046
:100F400010B592B0002401A81421CDE90A44CDE9DE
:100F50000844FFF77FF923480094016841F080516D
:100F60000160006800F080500090009800941E48D6
:100F7000016841F440410160D821006800F440401C
:100F80000090009804201190022010900F910F21E2
:100F90000E914FF48001CDE90C014FF480300790A1
:100FA0000120069006A8FFF72DFC08B172B6FEE7F7
:100FB000FFF712FB08B172B6FEE74FF4805005212F
:100FC00005904FF4A050049000200390022002905E
:100FD0000F20019001A8FFF737FB08B172B6FEE7BA
:100FE00012B010BD40380240007000400248016855
:100FF00041F470010160704788ED00E0A948FFF7F7
:1010000056BE00BFD0F800C0B0F1804F0ED02B4BC1
:1010100098420BD02A4B984208D02A4B984205D0D0
:10102000294B984202D0294B984204D14B682CF0AE
:10103000700243EA020CB0F1804F20D01F4B98425F
:101040001DD01F4B98421AD01E4B984217D0204BF0
:10105000984214D01F4B984211D01F4B98420ED08B
:101060001A4B98420BD0184B984208D01B4B984211
:1010700005D01B4B984202D01A4B984204D1CB6842
:101080002CF4407243EA020C10B58B684A690E4C8E
:10109000C3620B6883622CF080031A4340F48063C0
:1010A000A342BDE8104004BF09690163016841F033
:1010B00004010160012141610260704700040040A9
:1010C00000080040000C0040000401400000014006
:1010D00000180040001C004000200040004001407B
:1010E0000048014000440140B0B50446006849F2A0
:1010F0000C650169E26821F4405111430161D4F8A3
:1011000008C0D4E90423D4F81CE0C16842EA0C0208
:10111000A9431A4342EA0E021143C1604169A26920
:1011200021F4407111434161214940F480608842BB
:1011300002D1FFF729FB01E0FFF71CFBE26919214F
:101140006368A0FB0101B2F5004F16D15A00DB0F16
:10115000FFF748F864216FF06303B0FBF1F202FB84
:101160000300322303EBC000B0FBF1F14FF4F87041
:1011700000EA410001F0070113E09A009B0FFFF71E
:1011800031F864216FF06303B0FBF1F202FB03005E
:10119000322303EB0010B0FBF1F101F0F00001F09D
:1011A0000F0100EB0210084321688860B0BD00BF4A
:1011B00000140140FEE7000010B5074C00F00F03DB
:1011C000044AB0F1FF3F2344C8BF831808011870D8
:1011D00010BD00BF00E400E014ED00E03C490A68E7
:1011E0005206FCD5C2B24A60704700BFFFF770F9E3
:1011F000FFF7A6FEFFF762FE4FF4E13000F056F86D
:1012000000F032F81048FFF711FD10A000F072F85E
:10121000134C144D204602210022A84720460121EC
:101220000122A8474FF4FA70FFF754F82046022134
:101230000122A847204601210022A8474FF4FA7056
:10124000FFF748F8E6E700BF5800002048656C6CDF
:101250006F20576F726C64313131210D0000000036
:1012600000040240A90400081CB50E480E4B0024DF
:10127000592140F2E7328461C0E90032C0E90241FD
:10128000CDE90044FFF78AFC08B1FFF721F80548D3
:101290006946CDE90044FFF743FC08B1FFF718F8B1
:1012A0001CBD00BF58000020001000400749084B3B
:1012B00000224FF00C0CC1E900300846C1E90222BF
:1012C000C1E9042C8A61FFF78ABD00BF100000202D
:1012D0000010014002E008C8121F08C1002AFAD11C
:1012E00070477047002001E001C1121F002AFBD1A6
:1012F0007047000010B5044601E0FFF76FFF14F8D7
:10130000010B04490028F8D1BDE810400A20FFF77E
:1013100065BF000000000020000000000000000089
:10132000010203040607080900000000010203048B
:10133000501300080000002010000000D412000824
:10134000601300081000002098040000E412000858
:101350000000000001000000100000000024F40064
:04000005080001AD41
:00000001FF
