:020000040800F2
:1000000060040020C10100080F0C0008B90B0008B3
:100010000D0C0008A9020008F50C00080000000003
:10002000000000000000000000000000130C0008A9
:10003000AB02000800000000110C0008150C0008BD
:10004000DB010008DB010008DB010008DB01000820
:10005000DB010008DB010008DB010008DB01000810
:10006000DB010008DB010008DB010008DB01000800
:10007000DB010008DB010008DB010008DB010008F0
:10008000DB010008DB010008DB010008DB010008E0
:10009000DB010008DB010008DB010008DB010008D0
:1000A000DB010008DB010008DB010008DB010008C0
:1000B000DB010008DB010008DB010008DB010008B0
:1000C000DB010008DB010008DB010008DB010008A0
:1000D000DB010008DB010008DB010008DB01000890
:1000E000DB010008DB010008DB010008DB01000880
:1000F000DB010008DB010008DB010008DB01000870
:10010000DB010008DB010008DB010008DB0100085F
:10011000DB010008DB010008DB010008DB0100084F
:10012000DB010008DB010008DB010008DB0100083F
:10013000DB010008DB010008DB010008DB0100082F
:10014000DB010008DB010008DB010008DB0100081F
:10015000DB010008DB010008DB010008DB0100080F
:10016000DB010008DB010008DB010008DB010008FF
:10017000DB010008DB010008DB01000800000000D3
:10018000DB010008DB010008DB010008DB010008DF
:10019000DB010008DB010008DB010008DB010008CF
:1001A000DB010008DB010008DB010008DFF80CD0F0
:1001B00000F068F8004800472D0D0008600400209A
:1001C0000648804706480047FEE7FEE7FEE7FEE7F1
:1001D000FEE7FEE7FEE7FEE7FEE7FEE7190C000894
:1001E000AD0100082DE9F05F0546002092469B46D0
:1001F00088460646814640241BE02846414647463D
:10020000224600F02FF853465A46C01A914110D3A7
:1002100011461846224600F016F82D1A67EB010821
:100220004F4622460120002100F00DF817EB00098F
:100230004E41201EA4F10104DFDC484631462A4627
:100240004346BDE8F09F202A04DB203A00FA02F181
:10025000002070479140C2F1200320FA03F31943B4
:1002600090407047202A04DB203A21FA02F0002156
:10027000704721FA02F3D040C2F1200291400843B6
:1002800019467047064C074D06E0E06840F0010350
:1002900094E8070098471034AC42F6D3FFF78AFF82
:1002A000AC0E0008CC0E0008FEE77047B0B504465F
:1002B00000F0E8F805469548611C007818BF044432
:1002C00000F0E0F8401BA042FAD3B0BD2DE9FC4F8E
:1002D000634A0A274FF0010B4FF000094FF0000A64
:1002E0009042604A08BF092702444FEAB223092B13
:1002F00038BF4FEAB22700970027202F08BFBDE87C
:10030000FC8F0B680BFA0AF6334200F0A3804B68AF
:1003100003F00308A8F10104012C18D80322856812
:1003200002FA07F425EA040CCD686FEA040EBD401A
:1003300045EA0C058560C3F3001505FA0AFC45681B
:10034000B54345EA0C054FEA4A0C45600CE003252D
:10035000B8F1030FBC4605FA07F56FEA050E03D1A5
:10036000BC464FF0030821E0C4688D68B8F1020F65
:1003700004EA0E0405FA0CF544EA0504C46015D13C
:1003800009F01C030F2202FA03F86FF0030202EADD
:100390005A0505442C6A24EA08080C6904FA03F398
:1003A00043EA08032B624B6803F00308046808FA69
:1003B0000CF513F4403F04EA0E0445EA0405056019
:1003C00048D0002209F00C040192294A136843F432
:1003D000804313601368244A03F4804394460193D6
:1003E0002AF003031344234A019D96469D580F2289
:1003F000A24025EA0202009DA5402A4343F80E20B0
:10040000DCF808204D6842EA0603EC0258BF22EAF5
:100410000603164ACCF80830AC029646126842EA47
:10042000060358BF22EA0603CEF80030AC03DCF81E
:10043000042042EA060358BF22EA0603CCF804303F
:10044000ED03DCF8002042EA060358BF22EA060367
:10045000CCF8003009F1040902370AF1010A4CE72F
:10046000002402400000FEBF003C01400C3C014063
:100470004438024008FCFFFF002A08BF09048161DC
:100480007047000005480068704700BF1F480349D7
:1004900000780A6810440860704700BF58000020C8
:1004A00080B50B48016841F400710160016841F4B6
:1004B00080610160016841F480710160032000F0F7
:1004C00047F80F2000F006F800F022F8002080BD69
:1004D000003C024070B50D4E04464FF47A713078FE
:1004E000B1FBF0F093490968B1FBF0F000F0E2FADB
:1004F00001250F2C08D838B94FF0FF3021460022D3
:10050000002500F007F87460284670BD0400002044
:100510007047000080B5144B1B68C3F3022CBCF17C
:10052000030E8CF007034FF0FF3C38BF4FF0000E76
:10053000042B28BF04230CFA03F399430CFA0EF39F
:1005400001FA0EF19A431143BDE8804000F0D4BB9C
:1005500005494FF6FF030A681A4060F30A22034870
:1005600010430860704700BF0CED00E00000FA0582
:100570007CB50020184E194D01901648016841F0D5
:1005800080510160006800F08050019001980120C6
:100590003060FFF777FF04462868C00306D4FFF7F2
:1005A00071FF001BB0F57A7FF6D90DE00120706075
:1005B000FFF768FF04462868800307D4FFF762FF4F
:1005C000001BB0F57A7FF6D9032000E0002002B0CE
:1005D00070BD00BF4038024040000E420470004031
:1005E0002DE9F041002800F08780454B04468846FD
:1005F000D3F8000400F00F00884207D283F800848B
:10060000D3F8000400F00F00404575D12068810741
:1006100011D5410742BF996841F4E0519960010743
:1006200042BF996841F4604199609968A26821F0DD
:10063000F00111439960C0072CD06068811E022927
:1006400003D21968890109D456E0012803D1196839
:10065000890303D450E0196889074DD599681D4670
:1006600021F0030108439860FFF70CFF064641F2B2
:10067000883707E0FFF706FF801BB84284BF0320DE
:10068000BDE8F081A86861682B4600F00C00B0EB73
:10069000810FEFD1D3F8000400F00F00404507D9D7
:1006A00083F80084D3F8000400F00F00404523D104
:1006B0002068410705D59968E26821F4E0511143AB
:1006C0009960000706D59868216920F4604040EAE7
:1006D000C10098601C4600F033F8A168094AC1F3D4
:1006E0000311515CC8401349086007480068FFF7D0
:1006F000F1FE0020BDE8F0810120BDE8F08100BFDF
:1007000000380240940E00080800002009480A49F9
:100710000A4A00680968C1F38221515CC8407047E9
:1007200004480549054A00680968C1F34231515C33
:10073000C84070470C00002008380240A40E000892
:1007400010B5134C606800F00C00082804D0042891
:1007500014BF1048104810BD2268206800234002D2
:1007600002F03F020C485CBF42F20040C0F2F400CD
:100770002168C1F38811A0FB0101FFF733FD216857
:100780000222C1F3014102EB4101B0FBF1F010BDC7
:10079000043802400024F40040787D012DE9FC413A
:1007A000002800F03E8104460078BF4EC00743D0C9
:1007B000B06800F00C00042805D1306880033BD5F8
:1007C0006068C8BB2DE1B06800F00C00082802D1B9
:1007D00070684002F1D46768B7F5803F06D0306892
:1007E000B7F5A02F12D140F480203060306840F47B
:1007F00080303060FFF746FE0546306880031BD42A
:10080000FFF740FE401B6428F7D9ABE020F48030AE
:100810003060306820F480203060FFF733FE0546FA
:10082000002FEAD13068800306D5FFF72BFE411B6D
:1008300003206429F6D9F5E0207880072BD5B0682D
:1008400010F00C0F07D0B06800F00C00082809D198
:100850007068400206D43068800715D5E06801282A
:1008600012D0DEE0E06800287ED0904801210160CF
:10087000FFF708FE05463068800705D4FFF702FE43
:10088000401B0228F7D96DE03068216920F0F8009C
:1008900040EAC10030602078000720D561698348B4
:1008A00071B10121C0F8801EFFF7ECFD0546706FA5
:1008B000800714D4FFF7E6FD401B0228F7D951E06A
:1008C0000021C0F8801EFFF7DDFD0546706F800730
:1008D00005D5FFF7D7FD401B0228F7D942E0207865
:1008E000400771D5306C4FF00008C0000CD4CDF833
:1008F00004804FF00108306C40F080503064306C60
:1009000000F0805001900198694F3868C0050FD4FD
:10091000386840F480703860FFF7B4FD05463868E9
:10092000C00505D4FFF7AEFD401B0228F7D919E03A
:10093000A768012F05D0306F052F26D140F00400A5
:100940003067306F40F001003067FFF79BFD0546D0
:1009500041F28837306F80072FD4FFF793FD401B9B
:10096000B842F7D903205DE0504800210160FFF74D
:1009700089FD0546306880077FF58DAFFFF782FD62
:10098000411B03200229F5D94CE020F0010030671B
:10099000306F20F004003067FFF774FD0546002F2C
:1009A000D6D141F28837306F800706D5FFF76AFD50
:1009B000411B0320B942F6D934E0B8F1000F1EBF45
:1009C000306C20F080503064A769002F6AD0B06886
:1009D00000F00C00082828D1012F22D07068E169AE
:1009E00000F480028A421CD1216A00F03F028A4250
:1009F00017D147F6C071626A0140B1EB821F10D176
:100A0000A16A4FF6FF72C903914300F44032A1F589
:100A100080318A4205D1E16A00F07060B0EB016F6D
:100A200040D0012002B0BDE8F08120490020884676
:100A30000866FFF727FD0546022F09D130688001BF
:100A400010D5FFF71FFD411B03200229F6D9E9E766
:100A50003068800126D5FFF715FD411B03200229D0
:100A6000F6D9DFE704F11C078FCF0843D90340EA2A
:100A700082104FF6FF72914340EA0760A1F5803182
:100A8000084370600120C8F86000FFF7FBFC0446D3
:100A90003068800106D4FFF7F5FC011B0320022912
:100AA000F6D9BFE70020BDE700380240000047420A
:100AB00000700040411E0020B0EB116F1CBF0120F0
:100AC0007047044AF023516003490B70072190607E
:100AD0001160704710E000E023ED00E058B310B55E
:100AE000044690F8410028B9002084F840002046D0
:100AF00000F024F8242084F841002068C16821F423
:100B00000051C160204600F08FF82068016921F48F
:100B100090410161416921F02A014161C16841F4BC
:100B20000051C16000202021606484F8411084F8E5
:100B30004210606310BD01207047000070B586B0A0
:100B40001C4D04460068A5F57041884230D1002054
:100B50002D4901AE01900A6842F001020A600A685C
:100B600002F001020192019A0190486940F01000E0
:100B700048614869012100F01000019001980720A8
:100B8000059002200490CDE902014FF40070314637
:100B900001902846FFF79AFB4FF4806031460190A0
:100BA0002846FFF793FB2068C16821F04001C1602F
:100BB00006B070BD00000240FEE7000010B586B030
:100BC0000020904C01901048016841F00201016042
:100BD0000121006800F002000190019803200490B8
:100BE0000391CDE9010101A92046FFF76FFB2046E3
:100BF00001210122FFF740FC204602210122FFF7DC
:100C00003BFC06B010BD00BF30380240FEE7704725
:100C100070477047FFF73ABC0248016841F4700121
:100C20000160704788ED00E0B0B50446006849F205
:100C30000C650169E26821F4405111430161D4F867
:100C400008C0D4E90423D4F81CE0C16842EA0C02CD
:100C5000A9431A4342EA0E021143C1604169A269E5
:100C600021F4407111434161214940F48060884280
:100C700002D1FFF755FD01E0FFF748FDE2691921B8
:100C80006368A0FB0101B2F5004F16D15A00DB0FDB
:100C9000FFF7A8FA64216FF06303B0FBF1F202FBE7
:100CA0000300322303EBC000B0FBF1F14FF4F87006
:100CB00000EA410001F0070113E09A009B0FFFF7E3
:100CC00091FA64216FF06303B0FBF1F202FB0300C1
:100CD000322303EB0010B0FBF1F101F0F00001F062
:100CE0000F0100EB0210084321688860B0BD00BF0F
:100CF00000140140FEE7000010B5074C00F00F03A0
:100D0000044AB0F1FF3F2344C8BF8318080118709C
:100D100010BD00BF00E400E014ED00E04B490A689C
:100D20005206FCD5C2B24A60704700BF92B0FFF7CE
:100D3000B7FB00253148334C02260195016841F08C
:100D400080510160006800F0805001900198019589
:100D50002B48215841F440412150205800F4404094
:100D60000190019808200C904FF4B4700B960A90F3
:100D7000192009904FF48000CDE907604FF48030CE
:100D800002900120019001A8FFF708FDFFF7F0FB9A
:100D90004FF48050052111904FF4A05010900F2077
:100DA000CDE90E650D900DA8FFF71AFCFFF706FFC1
:100DB0004FF4E13000F038F813A000F059F8164E67
:100DC00016A5204602210022B0472046012101221B
:100DD000B0474FF4FA70FFF769FA2046022101226A
:100DE000B047204601210022B0474FF4FA70FFF7C8
:100DF0005DFA284600F03CF8E3E700BF40380240C7
:100E0000006CFEFF0004024048656C6C6F20576F59
:100E1000726C64210D000000790400087561727421
:100E2000206C6F6F70210D000749084B00224FF0B6
:100E30000C0CC1E900300846C1E90222C1E9042CCA
:100E40008A61FFF74BBE00BF100000200010014078
:100E500002E008C8121F08C1002AFAD17047704783
:100E6000002001E001C1121F002AFBD170470000E1
:100E700010B5044601E0FFF751FF14F8010B0449D7
:100E80000028F8D1BDE810400A20FFF747BF000056
:100E90000000002000000000000000000102030428
:100EA000060708090000000001020304D00E000834
:100EB0000000002010000000500E0008E00E0008A6
:100EC0001000002050040000600E00080000000028
:100ED0000000000001000000100000000024F400E9
:04000005080001AD41
:00000001FF
